{
  "address": "0x6B049Eb9cDf4eCc182DF1c23e1c3bf6eC670bF0D",
  "abi": [
    {
      "inputs": [
        {
          "internalType": "string",
          "name": "_name",
          "type": "string"
        },
        {
          "internalType": "string",
          "name": "_symbol",
          "type": "string"
        }
      ],
      "stateMutability": "nonpayable",
      "type": "constructor"
    },
    {
      "inputs": [],
      "name": "ClaimTimeout",
      "type": "error"
    },
    {
      "inputs": [
        {
          "internalType": "address",
          "name": "spender",
          "type": "address"
        },
        {
          "internalType": "uint256",
          "name": "allowance",
          "type": "uint256"
        },
        {
          "internalType": "uint256",
          "name": "needed",
          "type": "uint256"
        }
      ],
      "name": "ERC20InsufficientAllowance",
      "type": "error"
    },
    {
      "inputs": [
        {
          "internalType": "address",
          "name": "sender",
          "type": "address"
        },
        {
          "internalType": "uint256",
          "name": "balance",
          "type": "uint256"
        },
        {
          "internalType": "uint256",
          "name": "needed",
          "type": "uint256"
        }
      ],
      "name": "ERC20InsufficientBalance",
      "type": "error"
    },
    {
      "inputs": [
        {
          "internalType": "address",
          "name": "approver",
          "type": "address"
        }
      ],
      "name": "ERC20InvalidApprover",
      "type": "error"
    },
    {
      "inputs": [
        {
          "internalType": "address",
          "name": "receiver",
          "type": "address"
        }
      ],
      "name": "ERC20InvalidReceiver",
      "type": "error"
    },
    {
      "inputs": [
        {
          "internalType": "address",
          "name": "sender",
          "type": "address"
        }
      ],
      "name": "ERC20InvalidSender",
      "type": "error"
    },
    {
      "inputs": [
        {
          "internalType": "address",
          "name": "spender",
          "type": "address"
        }
      ],
      "name": "ERC20InvalidSpender",
      "type": "error"
    },
    {
      "inputs": [
        {
          "internalType": "address",
          "name": "owner",
          "type": "address"
        }
      ],
      "name": "OwnableInvalidOwner",
      "type": "error"
    },
    {
      "inputs": [
        {
          "internalType": "address",
          "name": "account",
          "type": "address"
        }
      ],
      "name": "OwnableUnauthorizedAccount",
      "type": "error"
    },
    {
      "anonymous": false,
      "inputs": [
        {
          "indexed": true,
          "internalType": "address",
          "name": "owner",
          "type": "address"
        },
        {
          "indexed": true,
          "internalType": "address",
          "name": "spender",
          "type": "address"
        },
        {
          "indexed": false,
          "internalType": "uint256",
          "name": "value",
          "type": "uint256"
        }
      ],
      "name": "Approval",
      "type": "event"
    },
    {
      "anonymous": false,
      "inputs": [
        {
          "indexed": true,
          "internalType": "address",
          "name": "previousOwner",
          "type": "address"
        },
        {
          "indexed": true,
          "internalType": "address",
          "name": "newOwner",
          "type": "address"
        }
      ],
      "name": "OwnershipTransferred",
      "type": "event"
    },
    {
      "anonymous": false,
      "inputs": [
        {
          "indexed": true,
          "internalType": "address",
          "name": "from",
          "type": "address"
        },
        {
          "indexed": true,
          "internalType": "address",
          "name": "to",
          "type": "address"
        },
        {
          "indexed": false,
          "internalType": "uint256",
          "name": "value",
          "type": "uint256"
        }
      ],
      "name": "Transfer",
      "type": "event"
    },
    {
      "inputs": [
        {
          "internalType": "address",
          "name": "owner",
          "type": "address"
        },
        {
          "internalType": "address",
          "name": "spender",
          "type": "address"
        }
      ],
      "name": "allowance",
      "outputs": [
        {
          "internalType": "uint256",
          "name": "",
          "type": "uint256"
        }
      ],
      "stateMutability": "view",
      "type": "function"
    },
    {
      "inputs": [
        {
          "internalType": "address",
          "name": "spender",
          "type": "address"
        },
        {
          "internalType": "uint256",
          "name": "value",
          "type": "uint256"
        }
      ],
      "name": "approve",
      "outputs": [
        {
          "internalType": "bool",
          "name": "",
          "type": "bool"
        }
      ],
      "stateMutability": "nonpayable",
      "type": "function"
    },
    {
      "inputs": [
        {
          "internalType": "address",
          "name": "account",
          "type": "address"
        }
      ],
      "name": "balanceOf",
      "outputs": [
        {
          "internalType": "uint256",
          "name": "",
          "type": "uint256"
        }
      ],
      "stateMutability": "view",
      "type": "function"
    },
    {
      "inputs": [],
      "name": "claim",
      "outputs": [],
      "stateMutability": "nonpayable",
      "type": "function"
    },
    {
      "inputs": [],
      "name": "claimAmount",
      "outputs": [
        {
          "internalType": "uint256",
          "name": "",
          "type": "uint256"
        }
      ],
      "stateMutability": "view",
      "type": "function"
    },
    {
      "inputs": [],
      "name": "decimals",
      "outputs": [
        {
          "internalType": "uint8",
          "name": "",
          "type": "uint8"
        }
      ],
      "stateMutability": "view",
      "type": "function"
    },
    {
      "inputs": [
        {
          "internalType": "uint256",
          "name": "_amount",
          "type": "uint256"
        }
      ],
      "name": "mint",
      "outputs": [],
      "stateMutability": "nonpayable",
      "type": "function"
    },
    {
      "inputs": [],
      "name": "name",
      "outputs": [
        {
          "internalType": "string",
          "name": "",
          "type": "string"
        }
      ],
      "stateMutability": "view",
      "type": "function"
    },
    {
      "inputs": [],
      "name": "owner",
      "outputs": [
        {
          "internalType": "address",
          "name": "",
          "type": "address"
        }
      ],
      "stateMutability": "view",
      "type": "function"
    },
    {
      "inputs": [],
      "name": "renounceOwnership",
      "outputs": [],
      "stateMutability": "nonpayable",
      "type": "function"
    },
    {
      "inputs": [
        {
          "internalType": "uint256",
          "name": "_amount",
          "type": "uint256"
        }
      ],
      "name": "setClaimAmount",
      "outputs": [],
      "stateMutability": "nonpayable",
      "type": "function"
    },
    {
      "inputs": [
        {
          "internalType": "uint256",
          "name": "_newTimeout",
          "type": "uint256"
        }
      ],
      "name": "setTimeOut",
      "outputs": [],
      "stateMutability": "nonpayable",
      "type": "function"
    },
    {
      "inputs": [],
      "name": "symbol",
      "outputs": [
        {
          "internalType": "string",
          "name": "",
          "type": "string"
        }
      ],
      "stateMutability": "view",
      "type": "function"
    },
    {
      "inputs": [],
      "name": "timeout",
      "outputs": [
        {
          "internalType": "uint256",
          "name": "",
          "type": "uint256"
        }
      ],
      "stateMutability": "view",
      "type": "function"
    },
    {
      "inputs": [],
      "name": "totalSupply",
      "outputs": [
        {
          "internalType": "uint256",
          "name": "",
          "type": "uint256"
        }
      ],
      "stateMutability": "view",
      "type": "function"
    },
    {
      "inputs": [
        {
          "internalType": "address",
          "name": "to",
          "type": "address"
        },
        {
          "internalType": "uint256",
          "name": "value",
          "type": "uint256"
        }
      ],
      "name": "transfer",
      "outputs": [
        {
          "internalType": "bool",
          "name": "",
          "type": "bool"
        }
      ],
      "stateMutability": "nonpayable",
      "type": "function"
    },
    {
      "inputs": [
        {
          "internalType": "address",
          "name": "from",
          "type": "address"
        },
        {
          "internalType": "address",
          "name": "to",
          "type": "address"
        },
        {
          "internalType": "uint256",
          "name": "value",
          "type": "uint256"
        }
      ],
      "name": "transferFrom",
      "outputs": [
        {
          "internalType": "bool",
          "name": "",
          "type": "bool"
        }
      ],
      "stateMutability": "nonpayable",
      "type": "function"
    },
    {
      "inputs": [
        {
          "internalType": "address",
          "name": "newOwner",
          "type": "address"
        }
      ],
      "name": "transferOwnership",
      "outputs": [],
      "stateMutability": "nonpayable",
      "type": "function"
    },
    {
      "inputs": [
        {
          "internalType": "address",
          "name": "",
          "type": "address"
        }
      ],
      "name": "userClaimTime",
      "outputs": [
        {
          "internalType": "uint256",
          "name": "",
          "type": "uint256"
        }
      ],
      "stateMutability": "view",
      "type": "function"
    }
  ],
  "transactionHash": "0x52e10a90a2182e19cad4cb2cca75629475660c674cfece6d00df9e3031176135",
  "args": [
    "Mon3Jun1245",
    "1245"
  ],
  "numDeployments": 1,
  "solcInputHash": "f14620148fb1128472cd3e3cf31c0c67",
  "bytecode": "0x60806040523480156200001157600080fd5b50604051620021303803806200213083398181016040528101906200003791906200064f565b33828281600390816200004b91906200091f565b5080600490816200005d91906200091f565b505050600073ffffffffffffffffffffffffffffffffffffffff168173ffffffffffffffffffffffffffffffffffffffff1603620000d55760006040517f1e4fbdf7000000000000000000000000000000000000000000000000000000008152600401620000cc919062000a4b565b60405180910390fd5b620000e6816200013060201b60201c565b506200012830620000fc620001f660201b60201c565b600a6200010a919062000bf8565b64174876e8006200011c919062000c49565b620001ff60201b60201c565b505062000d3a565b6000600560009054906101000a900473ffffffffffffffffffffffffffffffffffffffff16905081600560006101000a81548173ffffffffffffffffffffffffffffffffffffffff021916908373ffffffffffffffffffffffffffffffffffffffff1602179055508173ffffffffffffffffffffffffffffffffffffffff168173ffffffffffffffffffffffffffffffffffffffff167f8be0079c531659141344cd1fd0a4f28419497f9722a3daafe3b4186f6b6457e060405160405180910390a35050565b60006012905090565b600073ffffffffffffffffffffffffffffffffffffffff168273ffffffffffffffffffffffffffffffffffffffff1603620002745760006040517fec442f050000000000000000000000000000000000000000000000000000000081526004016200026b919062000a4b565b60405180910390fd5b62000288600083836200028c60201b60201c565b5050565b600073ffffffffffffffffffffffffffffffffffffffff168373ffffffffffffffffffffffffffffffffffffffff1603620002e2578060026000828254620002d5919062000c94565b92505081905550620003b8565b60008060008573ffffffffffffffffffffffffffffffffffffffff1673ffffffffffffffffffffffffffffffffffffffff1681526020019081526020016000205490508181101562000371578381836040517fe450d38c000000000000000000000000000000000000000000000000000000008152600401620003689392919062000ce0565b60405180910390fd5b8181036000808673ffffffffffffffffffffffffffffffffffffffff1673ffffffffffffffffffffffffffffffffffffffff16815260200190815260200160002081905550505b600073ffffffffffffffffffffffffffffffffffffffff168273ffffffffffffffffffffffffffffffffffffffff160362000403578060026000828254039250508190555062000450565b806000808473ffffffffffffffffffffffffffffffffffffffff1673ffffffffffffffffffffffffffffffffffffffff168152602001908152602001600020600082825401925050819055505b8173ffffffffffffffffffffffffffffffffffffffff168373ffffffffffffffffffffffffffffffffffffffff167fddf252ad1be2c89b69c2b068fc378daa952ba7f163c4a11628f55a4df523b3ef83604051620004af919062000d1d565b60405180910390a3505050565b6000604051905090565b600080fd5b600080fd5b600080fd5b600080fd5b6000601f19601f8301169050919050565b7f4e487b7100000000000000000000000000000000000000000000000000000000600052604160045260246000fd5b6200052582620004da565b810181811067ffffffffffffffff82111715620005475762000546620004eb565b5b80604052505050565b60006200055c620004bc565b90506200056a82826200051a565b919050565b600067ffffffffffffffff8211156200058d576200058c620004eb565b5b6200059882620004da565b9050602081019050919050565b60005b83811015620005c5578082015181840152602081019050620005a8565b60008484015250505050565b6000620005e8620005e2846200056f565b62000550565b905082815260208101848484011115620006075762000606620004d5565b5b62000614848285620005a5565b509392505050565b600082601f830112620006345762000633620004d0565b5b815162000646848260208601620005d1565b91505092915050565b60008060408385031215620006695762000668620004c6565b5b600083015167ffffffffffffffff8111156200068a5762000689620004cb565b5b62000698858286016200061c565b925050602083015167ffffffffffffffff811115620006bc57620006bb620004cb565b5b620006ca858286016200061c565b9150509250929050565b600081519050919050565b7f4e487b7100000000000000000000000000000000000000000000000000000000600052602260045260246000fd5b600060028204905060018216806200072757607f821691505b6020821081036200073d576200073c620006df565b5b50919050565b60008190508160005260206000209050919050565b60006020601f8301049050919050565b600082821b905092915050565b600060088302620007a77fffffffffffffffffffffffffffffffffffffffffffffffffffffffffffffffff8262000768565b620007b3868362000768565b95508019841693508086168417925050509392505050565b6000819050919050565b6000819050919050565b600062000800620007fa620007f484620007cb565b620007d5565b620007cb565b9050919050565b6000819050919050565b6200081c83620007df565b620008346200082b8262000807565b84845462000775565b825550505050565b600090565b6200084b6200083c565b6200085881848462000811565b505050565b5b8181101562000880576200087460008262000841565b6001810190506200085e565b5050565b601f821115620008cf57620008998162000743565b620008a48462000758565b81016020851015620008b4578190505b620008cc620008c38562000758565b8301826200085d565b50505b505050565b600082821c905092915050565b6000620008f460001984600802620008d4565b1980831691505092915050565b60006200090f8383620008e1565b9150826002028217905092915050565b6200092a82620006d4565b67ffffffffffffffff811115620009465762000945620004eb565b5b6200095282546200070e565b6200095f82828562000884565b600060209050601f83116001811462000997576000841562000982578287015190505b6200098e858262000901565b865550620009fe565b601f198416620009a78662000743565b60005b82811015620009d157848901518255600182019150602085019450602081019050620009aa565b86831015620009f15784890151620009ed601f891682620008e1565b8355505b6001600288020188555050505b505050505050565b600073ffffffffffffffffffffffffffffffffffffffff82169050919050565b600062000a338262000a06565b9050919050565b62000a458162000a26565b82525050565b600060208201905062000a62600083018462000a3a565b92915050565b7f4e487b7100000000000000000000000000000000000000000000000000000000600052601160045260246000fd5b60008160011c9050919050565b6000808291508390505b600185111562000af65780860481111562000ace5762000acd62000a68565b5b600185161562000ade5780820291505b808102905062000aee8562000a97565b945062000aae565b94509492505050565b60008262000b11576001905062000be4565b8162000b21576000905062000be4565b816001811462000b3a576002811462000b455762000b7b565b600191505062000be4565b60ff84111562000b5a5762000b5962000a68565b5b8360020a91508482111562000b745762000b7362000a68565b5b5062000be4565b5060208310610133831016604e8410600b841016171562000bb55782820a90508381111562000baf5762000bae62000a68565b5b62000be4565b62000bc4848484600162000aa4565b9250905081840481111562000bde5762000bdd62000a68565b5b81810290505b9392505050565b600060ff82169050919050565b600062000c0582620007cb565b915062000c128362000beb565b925062000c417fffffffffffffffffffffffffffffffffffffffffffffffffffffffffffffffff848462000aff565b905092915050565b600062000c5682620007cb565b915062000c6383620007cb565b925082820262000c7381620007cb565b9150828204841483151762000c8d5762000c8c62000a68565b5b5092915050565b600062000ca182620007cb565b915062000cae83620007cb565b925082820190508082111562000cc95762000cc862000a68565b5b92915050565b62000cda81620007cb565b82525050565b600060608201905062000cf7600083018662000a3a565b62000d06602083018562000ccf565b62000d15604083018462000ccf565b949350505050565b600060208201905062000d34600083018462000ccf565b92915050565b6113e68062000d4a6000396000f3fe608060405234801561001057600080fd5b50600436106101215760003560e01c8063715018a6116100ad578063a9059cbb11610071578063a9059cbb146102e8578063b1c7ef0c14610318578063bf5a0e5a14610334578063dd62ed3e14610350578063f2fde38b1461038057610121565b8063715018a614610268578063830953ab146102725780638da5cb5b1461029057806395d89b41146102ae578063a0712d68146102cc57610121565b8063313ce567116100f4578063313ce567146101c25780634e71d92d146101e0578063634ebd27146101ea57806370a082311461021a57806370dea79a1461024a57610121565b806306fdde0314610126578063095ea7b31461014457806318160ddd1461017457806323b872dd14610192575b600080fd5b61012e61039c565b60405161013b919061100d565b60405180910390f35b61015e600480360381019061015991906110c8565b61042e565b60405161016b9190611123565b60405180910390f35b61017c610451565b604051610189919061114d565b60405180910390f35b6101ac60048036038101906101a79190611168565b61045b565b6040516101b99190611123565b60405180910390f35b6101ca61048a565b6040516101d791906111d7565b60405180910390f35b6101e8610493565b005b61020460048036038101906101ff91906111f2565b61056b565b604051610211919061114d565b60405180910390f35b610234600480360381019061022f91906111f2565b610583565b604051610241919061114d565b60405180910390f35b6102526105cb565b60405161025f919061114d565b60405180910390f35b6102706105d1565b005b61027a6105e5565b604051610287919061114d565b60405180910390f35b6102986105eb565b6040516102a5919061122e565b60405180910390f35b6102b6610615565b6040516102c3919061100d565b60405180910390f35b6102e660048036038101906102e19190611249565b6106a7565b005b61030260048036038101906102fd91906110c8565b6106bc565b60405161030f9190611123565b60405180910390f35b610332600480360381019061032d9190611249565b6106df565b005b61034e60048036038101906103499190611249565b6106f1565b005b61036a60048036038101906103659190611276565b610703565b604051610377919061114d565b60405180910390f35b61039a600480360381019061039591906111f2565b61078a565b005b6060600380546103ab906112e5565b80601f01602080910402602001604051908101604052809291908181526020018280546103d7906112e5565b80156104245780601f106103f957610100808354040283529160200191610424565b820191906000526020600020905b81548152906001019060200180831161040757829003601f168201915b5050505050905090565b600080610439610810565b9050610446818585610818565b600191505092915050565b6000600254905090565b600080610466610810565b905061047385828561082a565b61047e8585856108be565b60019150509392505050565b60006012905090565b42600754600860003373ffffffffffffffffffffffffffffffffffffffff1673ffffffffffffffffffffffffffffffffffffffff168152602001908152602001600020546104e19190611345565b10610518576040517f818ea2ea00000000000000000000000000000000000000000000000000000000815260040160405180910390fd5b42600860003373ffffffffffffffffffffffffffffffffffffffff1673ffffffffffffffffffffffffffffffffffffffff1681526020019081526020016000208190555061056930336006546108be565b565b60086020528060005260406000206000915090505481565b60008060008373ffffffffffffffffffffffffffffffffffffffff1673ffffffffffffffffffffffffffffffffffffffff168152602001908152602001600020549050919050565b60075481565b6105d96109b2565b6105e36000610a39565b565b60065481565b6000600560009054906101000a900473ffffffffffffffffffffffffffffffffffffffff16905090565b606060048054610624906112e5565b80601f0160208091040260200160405190810160405280929190818152602001828054610650906112e5565b801561069d5780601f106106725761010080835404028352916020019161069d565b820191906000526020600020905b81548152906001019060200180831161068057829003601f168201915b5050505050905090565b6106af6109b2565b6106b93082610aff565b50565b6000806106c7610810565b90506106d48185856108be565b600191505092915050565b6106e76109b2565b8060068190555050565b6106f96109b2565b8060078190555050565b6000600160008473ffffffffffffffffffffffffffffffffffffffff1673ffffffffffffffffffffffffffffffffffffffff16815260200190815260200160002060008373ffffffffffffffffffffffffffffffffffffffff1673ffffffffffffffffffffffffffffffffffffffff16815260200190815260200160002054905092915050565b6107926109b2565b600073ffffffffffffffffffffffffffffffffffffffff168173ffffffffffffffffffffffffffffffffffffffff16036108045760006040517f1e4fbdf70000000000000000000000000000000000000000000000000000000081526004016107fb919061122e565b60405180910390fd5b61080d81610a39565b50565b600033905090565b6108258383836001610b81565b505050565b60006108368484610703565b90507fffffffffffffffffffffffffffffffffffffffffffffffffffffffffffffffff81146108b857818110156108a8578281836040517ffb8f41b200000000000000000000000000000000000000000000000000000000815260040161089f93929190611379565b60405180910390fd5b6108b784848484036000610b81565b5b50505050565b600073ffffffffffffffffffffffffffffffffffffffff168373ffffffffffffffffffffffffffffffffffffffff16036109305760006040517f96c6fd1e000000000000000000000000000000000000000000000000000000008152600401610927919061122e565b60405180910390fd5b600073ffffffffffffffffffffffffffffffffffffffff168273ffffffffffffffffffffffffffffffffffffffff16036109a25760006040517fec442f05000000000000000000000000000000000000000000000000000000008152600401610999919061122e565b60405180910390fd5b6109ad838383610d58565b505050565b6109ba610810565b73ffffffffffffffffffffffffffffffffffffffff166109d86105eb565b73ffffffffffffffffffffffffffffffffffffffff1614610a37576109fb610810565b6040517f118cdaa7000000000000000000000000000000000000000000000000000000008152600401610a2e919061122e565b60405180910390fd5b565b6000600560009054906101000a900473ffffffffffffffffffffffffffffffffffffffff16905081600560006101000a81548173ffffffffffffffffffffffffffffffffffffffff021916908373ffffffffffffffffffffffffffffffffffffffff1602179055508173ffffffffffffffffffffffffffffffffffffffff168173ffffffffffffffffffffffffffffffffffffffff167f8be0079c531659141344cd1fd0a4f28419497f9722a3daafe3b4186f6b6457e060405160405180910390a35050565b600073ffffffffffffffffffffffffffffffffffffffff168273ffffffffffffffffffffffffffffffffffffffff1603610b715760006040517fec442f05000000000000000000000000000000000000000000000000000000008152600401610b68919061122e565b60405180910390fd5b610b7d60008383610d58565b5050565b600073ffffffffffffffffffffffffffffffffffffffff168473ffffffffffffffffffffffffffffffffffffffff1603610bf35760006040517fe602df05000000000000000000000000000000000000000000000000000000008152600401610bea919061122e565b60405180910390fd5b600073ffffffffffffffffffffffffffffffffffffffff168373ffffffffffffffffffffffffffffffffffffffff1603610c655760006040517f94280d62000000000000000000000000000000000000000000000000000000008152600401610c5c919061122e565b60405180910390fd5b81600160008673ffffffffffffffffffffffffffffffffffffffff1673ffffffffffffffffffffffffffffffffffffffff16815260200190815260200160002060008573ffffffffffffffffffffffffffffffffffffffff1673ffffffffffffffffffffffffffffffffffffffff168152602001908152602001600020819055508015610d52578273ffffffffffffffffffffffffffffffffffffffff168473ffffffffffffffffffffffffffffffffffffffff167f8c5be1e5ebec7d5bd14f71427d1e84f3dd0314c0f7b2291e5b200ac8c7c3b92584604051610d49919061114d565b60405180910390a35b50505050565b600073ffffffffffffffffffffffffffffffffffffffff168373ffffffffffffffffffffffffffffffffffffffff1603610daa578060026000828254610d9e9190611345565b92505081905550610e7d565b60008060008573ffffffffffffffffffffffffffffffffffffffff1673ffffffffffffffffffffffffffffffffffffffff16815260200190815260200160002054905081811015610e36578381836040517fe450d38c000000000000000000000000000000000000000000000000000000008152600401610e2d93929190611379565b60405180910390fd5b8181036000808673ffffffffffffffffffffffffffffffffffffffff1673ffffffffffffffffffffffffffffffffffffffff16815260200190815260200160002081905550505b600073ffffffffffffffffffffffffffffffffffffffff168273ffffffffffffffffffffffffffffffffffffffff1603610ec65780600260008282540392505081905550610f13565b806000808473ffffffffffffffffffffffffffffffffffffffff1673ffffffffffffffffffffffffffffffffffffffff168152602001908152602001600020600082825401925050819055505b8173ffffffffffffffffffffffffffffffffffffffff168373ffffffffffffffffffffffffffffffffffffffff167fddf252ad1be2c89b69c2b068fc378daa952ba7f163c4a11628f55a4df523b3ef83604051610f70919061114d565b60405180910390a3505050565b600081519050919050565b600082825260208201905092915050565b60005b83811015610fb7578082015181840152602081019050610f9c565b60008484015250505050565b6000601f19601f8301169050919050565b6000610fdf82610f7d565b610fe98185610f88565b9350610ff9818560208601610f99565b61100281610fc3565b840191505092915050565b600060208201905081810360008301526110278184610fd4565b905092915050565b600080fd5b600073ffffffffffffffffffffffffffffffffffffffff82169050919050565b600061105f82611034565b9050919050565b61106f81611054565b811461107a57600080fd5b50565b60008135905061108c81611066565b92915050565b6000819050919050565b6110a581611092565b81146110b057600080fd5b50565b6000813590506110c28161109c565b92915050565b600080604083850312156110df576110de61102f565b5b60006110ed8582860161107d565b92505060206110fe858286016110b3565b9150509250929050565b60008115159050919050565b61111d81611108565b82525050565b60006020820190506111386000830184611114565b92915050565b61114781611092565b82525050565b6000602082019050611162600083018461113e565b92915050565b6000806000606084860312156111815761118061102f565b5b600061118f8682870161107d565b93505060206111a08682870161107d565b92505060406111b1868287016110b3565b9150509250925092565b600060ff82169050919050565b6111d1816111bb565b82525050565b60006020820190506111ec60008301846111c8565b92915050565b6000602082840312156112085761120761102f565b5b60006112168482850161107d565b91505092915050565b61122881611054565b82525050565b6000602082019050611243600083018461121f565b92915050565b60006020828403121561125f5761125e61102f565b5b600061126d848285016110b3565b91505092915050565b6000806040838503121561128d5761128c61102f565b5b600061129b8582860161107d565b92505060206112ac8582860161107d565b9150509250929050565b7f4e487b7100000000000000000000000000000000000000000000000000000000600052602260045260246000fd5b600060028204905060018216806112fd57607f821691505b6020821081036113105761130f6112b6565b5b50919050565b7f4e487b7100000000000000000000000000000000000000000000000000000000600052601160045260246000fd5b600061135082611092565b915061135b83611092565b925082820190508082111561137357611372611316565b5b92915050565b600060608201905061138e600083018661121f565b61139b602083018561113e565b6113a8604083018461113e565b94935050505056fea264697066735822122043b3e76d239c461313b48df194847df0e14a9fc840e6dfeb36ca6c601c550e8964736f6c63430008180033",
  "devdoc": {
    "errors": {
      "ERC20InsufficientAllowance(address,uint256,uint256)": [
        {
          "details": "Indicates a failure with the `spender`s `allowance`. Used in transfers.",
          "params": {
            "allowance": "Amount of tokens a `spender` is allowed to operate with.",
            "needed": "Minimum amount required to perform a transfer.",
            "spender": "Address that may be allowed to operate on tokens without being their owner."
          }
        }
      ],
      "ERC20InsufficientBalance(address,uint256,uint256)": [
        {
          "details": "Indicates an error related to the current `balance` of a `sender`. Used in transfers.",
          "params": {
            "balance": "Current balance for the interacting account.",
            "needed": "Minimum amount required to perform a transfer.",
            "sender": "Address whose tokens are being transferred."
          }
        }
      ],
      "ERC20InvalidApprover(address)": [
        {
          "details": "Indicates a failure with the `approver` of a token to be approved. Used in approvals.",
          "params": {
            "approver": "Address initiating an approval operation."
          }
        }
      ],
      "ERC20InvalidReceiver(address)": [
        {
          "details": "Indicates a failure with the token `receiver`. Used in transfers.",
          "params": {
            "receiver": "Address to which tokens are being transferred."
          }
        }
      ],
      "ERC20InvalidSender(address)": [
        {
          "details": "Indicates a failure with the token `sender`. Used in transfers.",
          "params": {
            "sender": "Address whose tokens are being transferred."
          }
        }
      ],
      "ERC20InvalidSpender(address)": [
        {
          "details": "Indicates a failure with the `spender` to be approved. Used in approvals.",
          "params": {
            "spender": "Address that may be allowed to operate on tokens without being their owner."
          }
        }
      ],
      "OwnableInvalidOwner(address)": [
        {
          "details": "The owner is not a valid owner account. (eg. `address(0)`)"
        }
      ],
      "OwnableUnauthorizedAccount(address)": [
        {
          "details": "The caller account is not authorized to perform an operation."
        }
      ]
    },
    "events": {
      "Approval(address,address,uint256)": {
        "details": "Emitted when the allowance of a `spender` for an `owner` is set by a call to {approve}. `value` is the new allowance."
      },
      "Transfer(address,address,uint256)": {
        "details": "Emitted when `value` tokens are moved from one account (`from`) to another (`to`). Note that `value` may be zero."
      }
    },
    "kind": "dev",
    "methods": {
      "allowance(address,address)": {
        "details": "See {IERC20-allowance}."
      },
      "approve(address,uint256)": {
        "details": "See {IERC20-approve}. NOTE: If `value` is the maximum `uint256`, the allowance is not updated on `transferFrom`. This is semantically equivalent to an infinite approval. Requirements: - `spender` cannot be the zero address."
      },
      "balanceOf(address)": {
        "details": "See {IERC20-balanceOf}."
      },
      "decimals()": {
        "details": "Returns the number of decimals used to get its user representation. For example, if `decimals` equals `2`, a balance of `505` tokens should be displayed to a user as `5.05` (`505 / 10 ** 2`). Tokens usually opt for a value of 18, imitating the relationship between Ether and Wei. This is the default value returned by this function, unless it's overridden. NOTE: This information is only used for _display_ purposes: it in no way affects any of the arithmetic of the contract, including {IERC20-balanceOf} and {IERC20-transfer}."
      },
      "name()": {
        "details": "Returns the name of the token."
      },
      "owner()": {
        "details": "Returns the address of the current owner."
      },
      "renounceOwnership()": {
        "details": "Leaves the contract without owner. It will not be possible to call `onlyOwner` functions. Can only be called by the current owner. NOTE: Renouncing ownership will leave the contract without an owner, thereby disabling any functionality that is only available to the owner."
      },
      "symbol()": {
        "details": "Returns the symbol of the token, usually a shorter version of the name."
      },
      "totalSupply()": {
        "details": "See {IERC20-totalSupply}."
      },
      "transfer(address,uint256)": {
        "details": "See {IERC20-transfer}. Requirements: - `to` cannot be the zero address. - the caller must have a balance of at least `value`."
      },
      "transferFrom(address,address,uint256)": {
        "details": "See {IERC20-transferFrom}. Emits an {Approval} event indicating the updated allowance. This is not required by the EIP. See the note at the beginning of {ERC20}. NOTE: Does not update the allowance if the current allowance is the maximum `uint256`. Requirements: - `from` and `to` cannot be the zero address. - `from` must have a balance of at least `value`. - the caller must have allowance for ``from``'s tokens of at least `value`."
      },
      "transferOwnership(address)": {
        "details": "Transfers ownership of the contract to a new account (`newOwner`). Can only be called by the current owner."
      }
    },
    "version": 1
  },
  "userdoc": {
    "kind": "user",
    "methods": {},
    "version": 1
  },
  "storageLayout": {
    "storage": [
      {
        "astId": 307,
        "contract": "contracts/TestTokenClaimable.sol:TestTokenClaimable",
        "label": "_balances",
        "offset": 0,
        "slot": "0",
        "type": "t_mapping(t_address,t_uint256)"
      },
      {
        "astId": 313,
        "contract": "contracts/TestTokenClaimable.sol:TestTokenClaimable",
        "label": "_allowances",
        "offset": 0,
        "slot": "1",
        "type": "t_mapping(t_address,t_mapping(t_address,t_uint256))"
      },
      {
        "astId": 315,
        "contract": "contracts/TestTokenClaimable.sol:TestTokenClaimable",
        "label": "_totalSupply",
        "offset": 0,
        "slot": "2",
        "type": "t_uint256"
      },
      {
        "astId": 317,
        "contract": "contracts/TestTokenClaimable.sol:TestTokenClaimable",
        "label": "_name",
        "offset": 0,
        "slot": "3",
        "type": "t_string_storage"
      },
      {
        "astId": 319,
        "contract": "contracts/TestTokenClaimable.sol:TestTokenClaimable",
        "label": "_symbol",
        "offset": 0,
        "slot": "4",
        "type": "t_string_storage"
      },
      {
        "astId": 8,
        "contract": "contracts/TestTokenClaimable.sol:TestTokenClaimable",
        "label": "_owner",
        "offset": 0,
        "slot": "5",
        "type": "t_address"
      },
      {
        "astId": 949,
        "contract": "contracts/TestTokenClaimable.sol:TestTokenClaimable",
        "label": "claimAmount",
        "offset": 0,
        "slot": "6",
        "type": "t_uint256"
      },
      {
        "astId": 951,
        "contract": "contracts/TestTokenClaimable.sol:TestTokenClaimable",
        "label": "timeout",
        "offset": 0,
        "slot": "7",
        "type": "t_uint256"
      },
      {
        "astId": 955,
        "contract": "contracts/TestTokenClaimable.sol:TestTokenClaimable",
        "label": "userClaimTime",
        "offset": 0,
        "slot": "8",
        "type": "t_mapping(t_address,t_uint256)"
      }
    ],
    "types": {
      "t_address": {
        "encoding": "inplace",
        "label": "address",
        "numberOfBytes": "20"
      },
      "t_mapping(t_address,t_mapping(t_address,t_uint256))": {
        "encoding": "mapping",
        "key": "t_address",
        "label": "mapping(address => mapping(address => uint256))",
        "numberOfBytes": "32",
        "value": "t_mapping(t_address,t_uint256)"
      },
      "t_mapping(t_address,t_uint256)": {
        "encoding": "mapping",
        "key": "t_address",
        "label": "mapping(address => uint256)",
        "numberOfBytes": "32",
        "value": "t_uint256"
      },
      "t_string_storage": {
        "encoding": "bytes",
        "label": "string",
        "numberOfBytes": "32"
      },
      "t_uint256": {
        "encoding": "inplace",
        "label": "uint256",
        "numberOfBytes": "32"
      }
    }
  }
}